{
  "contractName": "PatientContract",
  "abi": [
    {
      "anonymous": false,
      "inputs": [
        {
          "indexed": false,
          "internalType": "address",
          "name": "recipient",
          "type": "address"
        },
        {
          "indexed": false,
          "internalType": "uint256",
          "name": "patientId",
          "type": "uint256"
        },
        {
          "indexed": false,
          "internalType": "string",
          "name": "firstName",
          "type": "string"
        },
        {
          "indexed": false,
          "internalType": "string",
          "name": "lastName",
          "type": "string"
        },
        {
          "indexed": false,
          "internalType": "bool",
          "name": "isDeleted",
          "type": "bool"
        },
        {
          "indexed": false,
          "internalType": "uint256",
          "name": "timestamp",
          "type": "uint256"
        }
      ],
      "name": "AddPatient",
      "type": "event"
    },
    {
      "anonymous": false,
      "inputs": [
        {
          "indexed": false,
          "internalType": "address",
          "name": "recipient",
          "type": "address"
        },
        {
          "indexed": false,
          "internalType": "uint256",
          "name": "patientId",
          "type": "uint256"
        },
        {
          "indexed": false,
          "internalType": "string",
          "name": "firstName",
          "type": "string"
        },
        {
          "indexed": false,
          "internalType": "string",
          "name": "lastName",
          "type": "string"
        },
        {
          "indexed": false,
          "internalType": "bool",
          "name": "isDeleted",
          "type": "bool"
        },
        {
          "indexed": false,
          "internalType": "uint256",
          "name": "timestamp",
          "type": "uint256"
        }
      ],
      "name": "DeletePatient",
      "type": "event"
    },
    {
      "inputs": [
        {
          "internalType": "string",
          "name": "firstName",
          "type": "string"
        },
        {
          "internalType": "string",
          "name": "lastName",
          "type": "string"
        },
        {
          "internalType": "bool",
          "name": "isDeleted",
          "type": "bool"
        }
      ],
      "name": "addPatient",
      "outputs": [],
      "stateMutability": "nonpayable",
      "type": "function"
    },
    {
      "inputs": [],
      "name": "getMyPatients",
      "outputs": [
        {
          "components": [
            {
              "internalType": "uint256",
              "name": "id",
              "type": "uint256"
            },
            {
              "internalType": "string",
              "name": "firstName",
              "type": "string"
            },
            {
              "internalType": "string",
              "name": "lastName",
              "type": "string"
            },
            {
              "internalType": "bool",
              "name": "isDeleted",
              "type": "bool"
            },
            {
              "internalType": "uint256",
              "name": "timestamp",
              "type": "uint256"
            }
          ],
          "internalType": "struct PatientContract.Patient[]",
          "name": "",
          "type": "tuple[]"
        }
      ],
      "stateMutability": "view",
      "type": "function"
    },
    {
      "inputs": [
        {
          "internalType": "uint256",
          "name": "patientId",
          "type": "uint256"
        },
        {
          "internalType": "bool",
          "name": "isDeleted",
          "type": "bool"
        }
      ],
      "name": "deletePatient",
      "outputs": [],
      "stateMutability": "nonpayable",
      "type": "function"
    }
  ],
  "bytecode": "0x608060405234801561001057600080fd5b50611147806100206000396000f3fe608060405234801561001057600080fd5b50600436106100415760003560e01c806340bfcd5f14610046578063441131c9146100625780637d0f6d0b14610080575b600080fd5b610060600480360381019061005b919061076a565b61009c565b005b61006a6101cd565b60405161007791906109a0565b60405180910390f35b61009a60048036038101906100959190610af7565b61055f565b005b3373ffffffffffffffffffffffffffffffffffffffff166001600084815260200190815260200160002060009054906101000a900473ffffffffffffffffffffffffffffffffffffffff1673ffffffffffffffffffffffffffffffffffffffff16036101c957806000838154811061011757610116610b82565b5b906000526020600020906005020160030160006101000a81548160ff0219169083151502179055507f85d5756ebd88a2054ee8d80267b61e5e25c4200774edbd20b2ee5f116fcf091233836000858154811061017657610175610b82565b5b90600052602060002090600502016001016000868154811061019b5761019a610b82565b5b906000526020600020906005020160020185426040516101c096959493929190610d1a565b60405180910390a15b5050565b60606000808054905067ffffffffffffffff8111156101ef576101ee6109cc565b5b60405190808252806020026020018201604052801561022857816020015b6102156106b7565b81526020019060019003908161020d5790505b5090506000805b6000805490508110156104a5573373ffffffffffffffffffffffffffffffffffffffff166001600083815260200190815260200160002060009054906101000a900473ffffffffffffffffffffffffffffffffffffffff1673ffffffffffffffffffffffffffffffffffffffff161480156102e0575060001515600082815481106102bd576102bc610b82565b5b906000526020600020906005020160030160009054906101000a900460ff161515145b1561049257600081815481106102f9576102f8610b82565b5b90600052602060002090600502016040518060a00160405290816000820154815260200160018201805461032c90610c30565b80601f016020809104026020016040519081016040528092919081815260200182805461035890610c30565b80156103a55780601f1061037a576101008083540402835291602001916103a5565b820191906000526020600020905b81548152906001019060200180831161038857829003601f168201915b505050505081526020016002820180546103be90610c30565b80601f01602080910402602001604051908101604052809291908181526020018280546103ea90610c30565b80156104375780601f1061040c57610100808354040283529160200191610437565b820191906000526020600020905b81548152906001019060200180831161041a57829003601f168201915b505050505081526020016003820160009054906101000a900460ff1615151515815260200160048201548152505083838151811061047857610477610b82565b5b6020026020010181905250818061048e90610db8565b9250505b808061049d90610db8565b91505061022f565b5060008167ffffffffffffffff8111156104c2576104c16109cc565b5b6040519080825280602002602001820160405280156104fb57816020015b6104e86106b7565b8152602001906001900390816104e05790505b50905060005b828110156105555783818151811061051c5761051b610b82565b5b602002602001015182828151811061053757610536610b82565b5b6020026020010181905250808061054d90610db8565b915050610501565b5080935050505090565b60008080549050905060006040518060a0016040528083815260200186815260200185815260200184151581526020014281525090806001815401808255809150506001900390600052602060002090600502016000909190919091506000820151816000015560208201518160010190816105db9190610f97565b5060408201518160020190816105f19190610f97565b5060608201518160030160006101000a81548160ff021916908315150217905550608082015181600401555050336001600083815260200190815260200160002060006101000a81548173ffffffffffffffffffffffffffffffffffffffff021916908373ffffffffffffffffffffffffffffffffffffffff1602179055507f85d5756ebd88a2054ee8d80267b61e5e25c4200774edbd20b2ee5f116fcf09123382868686426040516106a9969594939291906110a2565b60405180910390a150505050565b6040518060a00160405280600081526020016060815260200160608152602001600015158152602001600081525090565b6000604051905090565b600080fd5b600080fd5b6000819050919050565b61070f816106fc565b811461071a57600080fd5b50565b60008135905061072c81610706565b92915050565b60008115159050919050565b61074781610732565b811461075257600080fd5b50565b6000813590506107648161073e565b92915050565b60008060408385031215610781576107806106f2565b5b600061078f8582860161071d565b92505060206107a085828601610755565b9150509250929050565b600081519050919050565b600082825260208201905092915050565b6000819050602082019050919050565b6107df816106fc565b82525050565b600081519050919050565b600082825260208201905092915050565b60005b8381101561081f578082015181840152602081019050610804565b8381111561082e576000848401525b50505050565b6000601f19601f8301169050919050565b6000610850826107e5565b61085a81856107f0565b935061086a818560208601610801565b61087381610834565b840191505092915050565b61088781610732565b82525050565b600060a0830160008301516108a560008601826107d6565b50602083015184820360208601526108bd8282610845565b915050604083015184820360408601526108d78282610845565b91505060608301516108ec606086018261087e565b5060808301516108ff60808601826107d6565b508091505092915050565b6000610916838361088d565b905092915050565b6000602082019050919050565b6000610936826107aa565b61094081856107b5565b935083602082028501610952856107c6565b8060005b8581101561098e578484038952815161096f858261090a565b945061097a8361091e565b925060208a01995050600181019050610956565b50829750879550505050505092915050565b600060208201905081810360008301526109ba818461092b565b905092915050565b600080fd5b600080fd5b7f4e487b7100000000000000000000000000000000000000000000000000000000600052604160045260246000fd5b610a0482610834565b810181811067ffffffffffffffff82111715610a2357610a226109cc565b5b80604052505050565b6000610a366106e8565b9050610a4282826109fb565b919050565b600067ffffffffffffffff821115610a6257610a616109cc565b5b610a6b82610834565b9050602081019050919050565b82818337600083830152505050565b6000610a9a610a9584610a47565b610a2c565b905082815260208101848484011115610ab657610ab56109c7565b5b610ac1848285610a78565b509392505050565b600082601f830112610ade57610add6109c2565b5b8135610aee848260208601610a87565b91505092915050565b600080600060608486031215610b1057610b0f6106f2565b5b600084013567ffffffffffffffff811115610b2e57610b2d6106f7565b5b610b3a86828701610ac9565b935050602084013567ffffffffffffffff811115610b5b57610b5a6106f7565b5b610b6786828701610ac9565b9250506040610b7886828701610755565b9150509250925092565b7f4e487b7100000000000000000000000000000000000000000000000000000000600052603260045260246000fd5b600073ffffffffffffffffffffffffffffffffffffffff82169050919050565b6000610bdc82610bb1565b9050919050565b610bec81610bd1565b82525050565b610bfb816106fc565b82525050565b7f4e487b7100000000000000000000000000000000000000000000000000000000600052602260045260246000fd5b60006002820490506001821680610c4857607f821691505b602082108103610c5b57610c5a610c01565b5b50919050565b600082825260208201905092915050565b60008190508160005260206000209050919050565b60008154610c9481610c30565b610c9e8186610c61565b94506001821660008114610cb95760018114610ccf57610d02565b60ff198316865281151560200286019350610d02565b610cd885610c72565b60005b83811015610cfa57815481890152600182019150602081019050610cdb565b808801955050505b50505092915050565b610d1481610732565b82525050565b600060c082019050610d2f6000830189610be3565b610d3c6020830188610bf2565b8181036040830152610d4e8187610c87565b90508181036060830152610d628186610c87565b9050610d716080830185610d0b565b610d7e60a0830184610bf2565b979650505050505050565b7f4e487b7100000000000000000000000000000000000000000000000000000000600052601160045260246000fd5b6000610dc3826106fc565b91507fffffffffffffffffffffffffffffffffffffffffffffffffffffffffffffffff8203610df557610df4610d89565b5b600182019050919050565b60006020601f8301049050919050565b600082821b905092915050565b600060088302610e4d7fffffffffffffffffffffffffffffffffffffffffffffffffffffffffffffffff82610e10565b610e578683610e10565b95508019841693508086168417925050509392505050565b6000819050919050565b6000610e94610e8f610e8a846106fc565b610e6f565b6106fc565b9050919050565b6000819050919050565b610eae83610e79565b610ec2610eba82610e9b565b848454610e1d565b825550505050565b600090565b610ed7610eca565b610ee2818484610ea5565b505050565b5b81811015610f0657610efb600082610ecf565b600181019050610ee8565b5050565b601f821115610f4b57610f1c81610c72565b610f2584610e00565b81016020851015610f34578190505b610f48610f4085610e00565b830182610ee7565b50505b505050565b600082821c905092915050565b6000610f6e60001984600802610f50565b1980831691505092915050565b6000610f878383610f5d565b9150826002028217905092915050565b610fa0826107e5565b67ffffffffffffffff811115610fb957610fb86109cc565b5b610fc38254610c30565b610fce828285610f0a565b600060209050601f8311600181146110015760008415610fef578287015190505b610ff98582610f7b565b865550611061565b601f19841661100f86610c72565b60005b8281101561103757848901518255600182019150602085019450602081019050611012565b868310156110545784890151611050601f891682610f5d565b8355505b6001600288020188555050505b505050505050565b6000611074826107e5565b61107e8185610c61565b935061108e818560208601610801565b61109781610834565b840191505092915050565b600060c0820190506110b76000830189610be3565b6110c46020830188610bf2565b81810360408301526110d68187611069565b905081810360608301526110ea8186611069565b90506110f96080830185610d0b565b61110660a0830184610bf2565b97965050505050505056fea2646970667358221220083b24b42134971d4195d98372d8072e81792e8a06e0431c210a4bc883483c7164736f6c634300080f0033",
  "immutableReferences": {},
  "source": "// SPDX-License-Identifier: MIT\npragma solidity >=0.4.22 <0.9.0;\n\n// Patient(0, 'clean', false)\n// Patient: { id: 0, patientText: 'clean', isDeleted: false }, \n\ncontract PatientContract {\n  event AddPatient(address recipient, uint patientId, string firstName, string lastName, bool isDeleted, uint256 timestamp);\n  event DeletePatient(address recipient, uint patientId, string firstName, string lastName, bool isDeleted, uint256 timestamp);\n\n  struct Patient {\n    uint id;\n    string firstName;\n    string lastName;\n    bool isDeleted;\n    uint timestamp;\n  }\n\n  Patient[] private patients;\n  mapping(uint256 => address) patientToOwner;\n  \n  function addPatient(string memory firstName, string memory lastName, bool isDeleted) external {\n    uint patientId = patients.length;\n    patients.push(Patient(patientId, firstName, lastName, isDeleted, block.timestamp));\n    patientToOwner[patientId] = msg.sender;\n    emit AddPatient(msg.sender, patientId, firstName, lastName, isDeleted, block.timestamp);\n  }\n  // get patients that are mine and not deleted\n  function getMyPatients() external view returns (Patient[] memory){\n    Patient[] memory temporary = new Patient[](patients.length);\n    uint counter = 0;\n\n    for (uint i=0; i<patients.length; i++) {\n      if(patientToOwner[i] == msg.sender && patients[i].isDeleted == false) {\n        temporary[counter] = patients[i];\n        counter++;\n      }\n    }\n    Patient[] memory result = new Patient[](counter);\n    for (uint i=0; i<counter; i++) {\n      result[i] = temporary[i];\n    }\n    return result;\n  }\n\n  function deletePatient(uint patientId, bool isDeleted) external {\n    if(patientToOwner[patientId] == msg.sender) {\n      patients[patientId].isDeleted = isDeleted;\n      emit AddPatient(msg.sender, patientId, patients[patientId].firstName, patients[patientId].lastName, isDeleted, block.timestamp);\n    }\n  }\n}\n",
  "sourcePath": "/home/avanbuss/my-todo/backend/contracts/PatientContract.sol",
  "compiler": {
    "name": "solc",
    "version": "0.8.15+commit.e14f2714.Emscripten.clang"
  },
  "schemaVersion": "3.4.11",
  "updatedAt": "2023-04-14T22:49:04.513Z",
  "devdoc": {
    "kind": "dev",
    "methods": {},
    "version": 1
  },
  "userdoc": {
    "kind": "user",
    "methods": {},
    "version": 1
  }
}